:0E0000000C9441010C9400000C9400000C9430
:10000E0000000C9400000C9400000C9400000C9462
:10001E0000000C9400000C9400000C9400000C9452
:10002E0000000C9400000C9400000C9400000C9442
:10003E0000000C9400000C9400000C9473010C94BE
:10004E0000000C94A3010C9400000C9400000C947E
:10005E0000000C9400000C9400000C9400000C9412
:10006E0000000C9400000C9400000C94D4010C942D
:10007E0000000C941B020C9400000C94000010273E
:10008E00E80364000A0001000010000110000100E6
:10009E0000000041542B434D47443D31200D00419B
:1000AE00542B434D47443D32200D0041542B434DBC
:1000BE0047443D33200D0041542B434D47443D34BE
:1000CE00200D0041542B434D47443D35200D00413A
:1000DE00542B434D47443D36200D0041542B434D88
:1000EE0047443D37200D0041542B434D47443D3886
:1000FE00200D0041542B434D47443D39200D004106
:10010E00542B434D47443D3130200D0041542B4379
:10011E004D47443D3131200D0041542B434D474452
:10012E003D3132200D0041542B434D47443D313378
:10013E00200D0041542B434D47443D3134200D00DA
:10014E0041542B434D47443D3135200D0041542041
:10015E000D0041542B434D47463D31200D00415477
:10016E002B434D47533D22303933383431393836ED
:10017E00383322200D004154442030393338343185
:10018E003938363833200D0001002D4E414E0049CE
:10019E004E460000010002009E0001000005A00076
:1001AE0001000105A0000C000205A1000C000E05C7
:1001BE00AD000C001A05B9000C002605C5000C0098
:1001CE003205D1000C003E05DD000C004A05E900A9
:1001DE000C005605F5000C00620501010D006E05C0
:1001EE000D010D007B051A010D00880527010D007C
:1001FE00950534010D00A20541010D00AF054E011C
:10020E000500BC055B010C00C10560011800CD05A1
:10021E006C010C00E505A1000C00F105AD000C0011
:10022E00FD05B9000C000906C5000C001506D1002D
:10023E000C002106DD0005002D065B010C003206C8
:10024E0060010C003E06A1000C004A06AD000C0039
:10025E005606B9000C006206C5000C006E06D100F1
:10026E000C007A06DD001200860684010100D50915
:10027E0096010000F894EE27ECBBF1E0F5BFE5BF68
:10028E00E0936C00F8E1F1BDE1BD8DE0A2E0BB278B
:10029E00ED938A95E9F780E090E1A0E0B1E0ED936F
:1002AE000197E9F7E2EAF1E085919591009761F007
:1002BE00A591B59105901590BF01F00105900D9295
:1002CE000197E1F7FB01F0CFEFEFEDBFE0E1EEBFFD
:1002DE00C0E0D5E00C942C04EA93FA93EFB7EA93BE
:1002EE001A930A931BB10CB1E12FEC7189F4E42D32
:1002FE004394F0E0E455F94F0083E8ECE41509F47B
:10030E0044248394E8ECE81519F48824689422F8C0
:10031E000991199123C01A938820F1F3E92D939432
:10032E00F0E0E455F94F1081E8ECE91509F4992451
:10033E00F8948A94789475C0EA93FA93EFB7EA9397
:10034E00DD2061F0DA94EA2DA394F0E0EC58F84F3A
:10035E00E081ECB9E8ECEA1509F4AA24E991EFBFC3
:10036E00F991E9911895E8ECED15E9F3F894DD2093
:10037E0011F45D990DC0EB2DB394F0E0EC58F84FED
:10038E00A881A083E8ECEB1509F4BB24D39402C03A
:10039E00E881ECB9789421960895AA93EA93FA939A
:1003AE00EFB7EA931A930A9310919B0000919C0069
:1003BE00E12FEC71B1F4EC2DC394F0E0E45CF74F57
:1003CE000083E8ECEC1509F4CC24A0910509AF5F8D
:1003DE00A0930509A83C29F4E0E0E0930509689490
:1003EE0023F8099119913FC01A93E0910509E03065
:1003FE00E1F3E0910409EF5FE0930409E150F0E0CE
:10040E00E45CF74F1081A0910409A83C19F4E0E0D8
:10041E00E0930409F894E0910509E150E093050991
:10042E007894E12F19910895AA93EA93FA93EFB76E
:10043E00EA93E091D009E030B1F0E150E093D009B9
:10044E00E091CF09EF5FE093CF09E150F0E0EA5F72
:10045E00F64FE081E0939C00A091CF09A83C19F4DF
:10046E00E0E0E093CF09E991EFBFF991E991A9910D
:10047E001895E881F981FA93EA930E94DD043A9780
:10048E0090F0A881B9811596AC91A33431F0A88172
:10049E00B9811596AC91A33619F4E1E0F0E076C07F
:1004AE00E0E0F0E073C072C0E2E0F5E00E94FB0411
:1004BE00EEE0F5E00E94FB04EAE1F5E00E94FB04A9
:1004CE00E6E2F5E00E94FB04E2E3F5E00E94FB04A5
:1004DE00EEE3F5E00E94FB04EAE4F5E00E94FB0483
:1004EE00E6E5F5E00E94FB04E2E6F5E00E94FB047F
:1004FE00EEE6F5E00E94FB04EBE7F5E00E94FB045C
:10050E00E8E8F5E00E94FB04E5E9F5E00E94FB0453
:10051E00E2EAF5E00E94FB04EFEAF5E00E94FB043C
:10052E000895ECEBF5E00E940505E1ECF5E00E9484
:10053E000505EDECF5E0FA93EA930E94E7040E94BC
:10054E000F05E881F981FA93EA930E94E704EAE144
:10055E00EA9309DFE4E1F0E00E941505E5EEF5E02F
:10056E000E94FB04E1EFF5E00E94FB04EDEFF5E0E5
:10057E000E94FB04E9E0F6E00E94FB04E5E1F6E0F0
:10058E000E94FB04E1E2F6E00E94FB04229608952D
:10059E002897E0E0EE830E94A1050E941905AA8526
:1005AE00BB85519720F0EAE0F0E0EA87FB87E8E8A8
:1005BE00F3E10E9415050E94190541E0EA85FB85CD
:1005CE00A42FB0E0EA17FB07D8F0102F032F322F1D
:1005DE00252FA42FB0E0A050B0400E9484055E2FBE
:1005EE00183541F4013331F4313321F4203311F451
:1005FE00503309F003C0E1E0EC8702C04F5FDECF5D
:10060E00EC85E03019F40E9421055CC00E9426059D
:10061E00EF5FFF4FDF010E948405EE870E942605E3
:10062E00EE5FFF4FDF010E948405EF870E942605D3
:10063E00ED5FFF4FDF010E948405E88BAE85A0378A
:10064E0031F4AF85AF3619F4A889A33709F035C058
:10065E00EFEFFFEFE887F987E0E0EE83EF83C4DE8C
:10066E001E2F143221F4AE81BF81119709F00DC0F7
:10067E00FE013E96FA93EA93FCDE3097F1F4E0E049
:10068E00E887E987EE83EF8310C0143249F4EE81D8
:10069E00FF813196EE83FF83E0E0E887E98705C0AE
:1006AE00E885F9853196E887F987E885F985DE01D1
:1006BE001E96EA0FFB1F1083D2CFFE013E96FA93D1
:1006CE00EA932FDF0E94A8052E9608952497E0E066
:1006DE00E883E983EA83EB830E94A105E89420F87E
:1006EE000E942905E0E0E815C0F4102F032F322FE9
:1006FE00252F542F10DE4E2F1B3251F4033441F4AC
:10070E003D3431F4243521F4593411F44A3309F0CF
:10071E0003C0E1E0EE8301C0E5CFEE81E03009F4E5
:10072E0090C00E942905E0E0E81510F4F4DDFBCF3F
:10073E000E942C05E2E70E9444050E944B05E0E072
:10074E00E987A985A33038F4E6DDE232E9F7E985D9
:10075E00EF5FE987F6CFE0E0E987A985A43140F4A1
:10076E000E945705A0E0A083E985EF5FE987F5CFEA
:10077E00E1E0E987A985A43168F4CDDDEF83AF818F
:10078E00A23241F00E945705AF81A083E985EF5F49
:10079E00E987F0CFE985F0E03197E09398060E9463
:1007AE002905882051F0102FB6DD0E2F1D3011F4C3
:1007BE000A3009F001C001C0F4CFE0E0E987102F44
:1007CE00AADD0E2FEFE41E2FE03011F00B3409F0EE
:1007DE0001C00BC0E985EF5FE987F0E0E050F04023
:1007EE00DF01E02F0E949005EACFE985A0E0B0E09E
:1007FE000E949005E0E0E81510F48DDDFBCFE1E0FE
:10080E00E987A985AA3098F40E942C05E4E60E9497
:10081E004405E985E05DEA93A6DDEDE0EA93A3DD0C
:10082E00EAE0EA93A0DDE985EF5FE987EACFE8EC3D
:10083E00F0E00E941505E0E0E81510F46CDDFBCF4A
:10084E00A7DE0E94A8052A960895E0E0EBBBE4E03F
:10085E00EABBE0E0E8BBE0E2E7BBE0E0E5BBE1E0FD
:10086E00E4BBE0E0E2BBE1BBE3B9E2B9E0936200D6
:10087E00E0936100E0936500E0936400E0BFE3BFA6
:10088E00E2BFE1BFEFBDEEBDEDBDECBDE7BDE6BD28
:10089E00EBBDEABDE9BDE8BDE0937900E0937800D9
:1008AE00E5BDE4BDE3BDE0938B00E0938A00E093E9
:1008BE008900E0938800E0938100E0938000E0934C
:1008CE008700E0938600E0938500E0938400E09338
:1008DE008300E0938200E0936A00EABFE9BFE7BFBE
:1008EE00E0937D00EBB9E0E9EAB9E6E0E09395002C
:1008FE00E0E0E0939000EFE2E9B9E0E0E0939B00E6
:10090E00E8EDE0939A00E6E0E0939D00E0E0E093EE
:10091E009800EFE2E0939900E0E8E8B9E0E0E0BD8E
:10092E00E6B9EDB9E09374007894A89AE0EDF7E09B
:10093E000E941505A898E0E0E093D109E093D20952
:10094E00E093D309E093D4090E9421050E940F057C
:10095E000E945C05E0E5EA9306DDE7E5EA9303DD38
:10096E00E2E50E9444050E944B05E4EFF1E00E948F
:10097E0015050E945C05E2E5EA93F5DCE3E5EA93F2
:10098E00F2DCE4E50E9444050E944B050E940F052F
:10099E00DA9A882049F0E3E0EFBDE0EDF7E00E943F
:1009AE00150594DEE3E8EFBDD1CFFFCFA991B99144
:1009BE00EE27FF276D91662311F03196FBCF089538
:1009CE001A93A981BA81ED91A983BA831E2FE030C3
:1009DE0021F01A930E94BA01F4CFEAE0EA930E9442
:1009EE00BA01188123960895FA93EA930E94E704B8
:1009FE00E8EEF3E0FA93EA930C947805FA93EA930F
:100A0E000E94E704E4E1F0E0FA93EA930C9478058F
:100A1E00ECE2F1E0FA93EA930C947805FA93EA93F8
:100A2E000C947805A0E0B0E00E948405F0E0EA871F
:100A3E00FB8708950E945B02E8EEF3E0EFCFE42F10
:100A4E00F0E00895E8EEF3E0E9CFE1E6EA930E94E4
:100A5E00BA01E4E7EA930E94BA01EBE2EA930E943C
:100A6E00BA01E3E6EA930E94BA01EDE6EA930E9428
:100A7E00BA01E7E6EA930C94BA01EA930E94BA012E
:100A8E00EDE3EA930C94BA01E1E3EA930E94BA0112
:100A9E00EDE0EA930E94BA01EAE0EA930C94BA01FF
:100AAE00E985F0E0E856F94F0895E1E4EA930E94F3
:100ABE00BA01E4E5EA930E94BA01EBE2EA930E94DE
:100ACE00BA01E3E4EA930E94BA01E7E4EA930E94D2
:100ADE00BA01E0E5EA930E94BA01E3E5EA930C94C9
:100AEE00BA01E991F991309639F080ED97E00197CE
:100AFE00F1F7A8953197C9F70895E199FECFFF93C5
:100B0E00FFB7F894AEBBBFBBE09AEDB3FFBFFF914A
:100B1E000895E19B02C0A895FCCF9FB7F894AEBB99
:100B2E00BFBBE09A8DB3E81719F0EDBBE29AE19ADC
:100B3E009FBF08955A934A933A932A931A930A930E
:100B4E0008955D814C813B812A8119810881089528
:00000001FF
