:080000000C9465010C94000052
:100008000C9400000C9400000C9400000C94000068
:100018000C9400000C9400000C9400000C94000058
:100028000C9400000C9400000C9400000C94000048
:100038000C9400000C9400000C9400000C94000038
:100048000C9497010C9400000C94CB010C940000C4
:100058000C9400000C9400000C9400000C94000018
:100068000C9400000C9400000C9400000C94000008
:100078000C9410020C9400000C9400000C940000E6
:100088000C9400001027E80364000A000100001027
:100098000001100001000000000000000000000046
:1000A800000000054F46460041542B434D47443D50
:1000B80031200D0041542B434D47443D32200D0063
:1000C80041542B434D47443D33200D0041542B43AD
:1000D8004D47443D34200D0041542B434D47443D8A
:1000E80035200D0041542B434D47443D36200D002B
:1000F80041542B434D47443D37200D0041542B4379
:100108004D47443D38200D0041542B434D47443D55
:1001180039200D0041542B434D47443D3130200DCB
:100128000041542B434D47443D3131200D0041548B
:100138002B434D47443D3132200D0041542B434D54
:1001480047533D2230393338343139383638332241
:10015800200D0047534D204F4E00696E76616C6943
:100168006420636F6D6D616E642100646174612049
:100178006973206661696C642021212100416C61EA
:10018800726D204F4E0053696C656E74204F4E009F
:1001980053746F70204F4E0053454355524954597C
:1001A80020776173204F4E005345435552495459A7
:1001B800206973204F4E00534543555249545920E6
:1001C8006973204F464600534543555249545920B8
:1001D800776173204F464600696E76616C696420CA
:1001E800636F6D6D616E6400446F7A442100010095
:1001F8002D4E414E00494E460000010002009E006F
:1002080004000005AC0001000405AF00010005056D
:10021800AF000C000605B0000C001205BC000C0075
:100228001E05C8000C002A05D4000C003605E000A5
:100238000C004205EC000C004E05F8000C005A05B5
:1002480004010C00660510010D0072051C010D006B
:100258007F0529010D008C0536010C009905B000B9
:100268001800A50543011800BD0543011100D50577
:1002780062011200E60573011800F8054301180031
:1002880010064301180028064301180040064301E0
:1002980018005806430110007006E0010C008006A3
:1002A800B0000C008C06B0000C009806BC001800CA
:1002B800A406430102000800AA000100B107F601E4
:1002C8000000F894EE27ECBBF1E0F5BFE5BFE09342
:1002D8006C00F8E1F1BDE1BD8DE0A2E0BB27ED9334
:1002E8008A95E9F780E090E1A0E0B1E0ED9301970D
:1002F800E9F7E2E0F2E085919591009761F0A59128
:10030800B59105901590BF01F00105900D920197E8
:10031800E1F7FB01F0CFEFEFEDBFE0E1EEBFC0E0AA
:10032800D5E00C94B302EA93FA93EFB7EA931A93E1
:100338000A931BB10CB1E12FEC7189F4EB2DB39446
:10034800F0E0E053F94F0083E0E5EB1509F4BB2436
:10035800D394E0E5ED1519F4DD24689422F80991A9
:100368001991E991EFBFF991E99118951A93DD2058
:10037800F1F3EA2DA394F0E0E053F94F1081E0E5A2
:10038800EA1509F4AA24F894DA94789495C0AA9303
:10039800EA93FA93EFB7EA93E0914907E030A9F0BE
:1003A800E150E0934907E0914807EF5FE093480781
:1003B800E150F0E0E05EF84FE081ECB9A091480729
:1003C800A83219F4E0E0E0934807E991EFBFF9910A
:1003D800E991A9911895A0914907A832E1F3F894F9
:1003E800E0914907E03011F45D9911C0EC2DC394F8
:1003F800F0E0E05EF84FA881A083E8E2EC1509F48C
:10040800CC24E0914907EF5FE093490702C0E881F7
:10041800ECB9789421960895AA93EA93FA93EFB7E2
:10042800EA931A930A9310919B0000919C00E12F84
:10043800EC71E9F4E091AE07EF5FE093AE07E150AD
:10044800F0E0E65BF84F0083A091AE07A43619F4FC
:10045800E0E0E093AE07A091B007AF5FA093B007CC
:10046800A43629F4E0E0E093B007689423F80991F2
:100478001991E991EFBFF991E991A99118951A930A
:10048800E091B007E030E1F3E091AF07EF5FE09370
:10049800AF07E150F0E0E65BF84F1081A091AF079D
:1004A800A43619F4E0E0E093AF07F894E091B007C0
:1004B800E150E093B0077894E12F19910895E1E4B1
:1004C800EA9389DFE4E5EA9386DFEBE2EA9383DFE8
:1004D800E3E4EA9380DFE7E4EA937DDFE0E5EA938B
:1004E8007ADFE3E5EA9377DFE2E5EA9374DFE3E5B1
:1004F800EA9371DFE4E5EA936EDFEDE3EA936BDFFD
:10050800E1E3EA9368DFE4E1F0E0FA93EA930E941A
:10051800F60BEDE0EA935FDFEAE0EA935CDFE8E8F8
:10052800F3E11EC1E881F981FA93EA930E94E10B95
:100538003A9790F0A881B9811596AC91A33431F01F
:10054800A881B9811596AC91A33619F4E1E0F0E0E1
:100558004CC2E0E0F0E049C2E0E0F0E046C2E0E092
:10056800EBBBEABBE8BBE0E7E7BBE0E0E5BBE7E005
:10057800E4BBE0E0E2BBE0EAE1BBE0E0E2BFEFBD04
:10058800EEBDE5BDE0938B00E0938A00E0936A003E
:10059800EABFE9BFE7BFE0937D00EBB9E8EDEAB950
:1005A800E6E0E0939500E0E0E0939000EFE2E9B93F
:1005B800E0E0E0939B00E0E9E0939A00E6E0E09356
:1005C8009D00E0E0E0939800EFE2E0939900E0E816
:1005D800E8B9E0E0E0BDE6B9EDB9E09374007894DD
:1005E800A89AECEDF5E0FA93EA930E94F60BA89826
:1005F800E0E1F7E2FA93EA930E94F60B34D6CFD5FE
:1006080011D0B3D05CDFE0E0ED1510F4AFDEFBCF26
:10061800DD2009F0B9D4F401A181AE3409F479D60A
:10062800F7CFFFCFE8EEF3E0FA93EA930E94F60BD8
:10063800E6E0F5E0FA93EA930E94150AE8EEF3E0A3
:10064800FA93EA930E94F60BE2E1F5E0FA93EA9353
:100658000E94150AE8EEF3E0FA93EA930E94F60B7B
:10066800EEE1F5E0FA93EA930E94150AE8EEF3E06A
:10067800FA93EA930E94F60BEAE2F5E0FA93EA931A
:100688000E94150AE8EEF3E0FA93EA930E94F60B4B
:10069800E6E3F5E0FA93EA930E94150AE8EEF3E040
:1006A800FA93EA930E94F60BE2E4F5E0FA93EA93F0
:1006B8000E94150AE8EEF3E0FA93EA930E94F60B1B
:1006C800EEE4F5E0FA93EA930E94150AE8EEF3E007
:1006D800FA93EA930E94F60BEAE5F5E0FA93EA93B7
:1006E8000E94150AE8EEF3E0FA93EA930E94F60BEB
:1006F800E6E6F5E0FA93EA930E94150AE8EEF3E0DD
:10070800FA93EA930E94F60BE2E7F5E0FA93EA938C
:100718000E94150AE8EEF3E0FA93EA930E94F60BBA
:10072800EFE7F5E0FA93EA930E94150AE8EEF3E0A2
:10073800FA93EA930E94F60BECE8F5E0FA93EA9351
:100748000E94150AE8EEF3E0FA93EA930E94F60B8A
:10075800E9E9F5E0FA93EA930E94150AE8EEF3E076
:10076800FA93EA930E94F60B08950E94310CE0E098
:10077800ED1510F4FBDDFBCFE4E6F0E0FA93EA9325
:100788000E94F60BE1E4EA9326DEE4E5EA9323DE31
:10079800EBE2EA9320DEE3E4EA931DDEEDE4EA937C
:1007A8001ADEE7E4EA9317DEE6E4EA9314DEEDE303
:1007B800EA9311DEE1E3EA930EDEEAE0F0E0FA9371
:1007C800EA930E94F60BEDE0EA9305DEEAE0EA938D
:1007D80002DEE4E6F0E0FA93EA930E94F60BE0E02A
:1007E800ED1558F4102FC2DD0E2F1F3411F40B3401
:1007F80009F002C030E001C0F2CFE0E0ED1510F4DE
:10080800B5DDFBCFE4E6F0E0FA93EA930E94F60B3D
:10081800E1E4EA93E0DDEAE0F0E0FA93EA930E948B
:10082800F60BE4E5EA93D7DDEAE0F0E0FA93EA9321
:100838000E94F60BEDE0EA93CEDDEAE0EA93CBDD29
:10084800E0E5F0E0FA93EA930E94F60BEDE0EA9314
:10085800C2DDEAE0EA93BFDDE4E1F0E0FA93EA936F
:100868000E94F60BE1E4EA93B6DDE4E5EA93B3DD32
:10087800EBE2EA93B0DDE3E4EA93ADDDE7E4EA9383
:10088800AADDE0E5EA93A7DDE3E5EA93A4DDE0E588
:10089800EA93A1DDE7E5EA939EDDE2E5EA939BDDD5
:1008A800EDE3EA9398DDE1E3EA9395DDEAE0F0E031
:1008B800FA93EA930E94F60BEDE0EA938CDDEAE006
:1008C800EA9389DDE0E5F0E0FA93EA930E94F60BFB
:1008D800ECE6F7E0FA93EA930E94F60BE1E4EA9378
:1008E8007ADDE4E5EA9377DDEBE2EA9374DDE3E4AD
:1008F800EA9371DDE7E4EA936EDDE0E5EA936BDD08
:10090800E3E5EA9368DDE2E5EA9365DDE3E5EA938A
:1009180062DDE4E5EA935FDDEDE3EA935CDDE1E3C4
:10092800EA9359DDE4E1F0E0FA93EA930E94F60BCA
:10093800EDE0EA9350DDEAE0EA934DDDE8E1F1E02D
:10094800FA93EA930E94F60BE5EAF5E0FA93EA9344
:100958000E94150AEDE0EA933EDDEAE0EA933BDD0A
:10096800E4EBF0E0FA93EA930E94F60BEBE5F1E092
:10097800FA93EA9380E00E94BA0B2296EAE5F0E047
:10098800FA93EA930E94F60BEAE1EA9324DDE8EC95
:10099800F0E0FA93EA930E94F60B3FC5EDEBF5E021
:1009A800FA93EA930E94150AEDE0EA9314DDEAE06F
:1009B800EA9311DDE4EBF0E0FA93EA930E94F60B78
:1009C800E881F981FA93EA930E94150AEAE5F0E0D2
:1009D800FA93EA930E94F60BEAE1EA93FCDCE8EC6E
:1009E800F0E0FA93EA930E94F60B22960895669730
:1009F80089E0A0E0B0E0E0EAF0E00E943D0C0E944F
:100A08002F0C00E010E020E030E0A0E0B0E00E9411
:100A1800120CF0E0EC87FD87AC85BD851B9720F0B4
:100A2800EAE0F0E0EC87FD87E1E0E88BEC85FD8506
:100A3800A889B0E0EA17FB0710F40C94CD05542FF1
:100A48004B8DEA8DEB8FE98DEA8FE88DE98FEF8981
:100A5800E88FEE89EF8BA889B0E0A050B0400E94E3
:100A6800120CEE8BAE89A13610F0AB3708F004C03B
:100A7800EE89F0E0B097EE8B503559F4413349F4E4
:100A8800AB8DA33331F4AA8DA93319F4A98DA13301
:100A980009F003C0E1E0EE877CC0AA8DA13461F4BF
:100AA800A98DAC3449F4A88DA13431F4AF89A235AD
:100AB80019F4AE89AD3409F003C0E2E0EE8769C0ED
:100AC800AB8DA33579F4AA8DA93461F4A98DAC3422
:100AD80049F4A88DA53431F4AF89AE3419F4AE8940
:100AE800A43509F003C0E3E0EE8753C0A98DA33510
:100AF80049F4A88DA43531F4AF89AF3419F4AE891F
:100B0800A03509F003C0E4E0EE8743C0AA8DA33501
:100B180061F4A98DA53449F4A88DA33431F4AF89C3
:100B2800AF3419F4AE89AE3409F003C0E5E0EE87BE
:100B380030C0AB8DA33579F4AA8DA53461F4A98DA5
:100B4800A33449F4A88DAF3431F4AF89A63419F42D
:100B5800AE89A63409F003C0E6E0EE871AC0AB8D73
:100B6800A73479F4AA8DA53461F4A98DA43549F484
:100B7800A88DA13431F4AF89AE3419F4AE89A43507
:100B880009F003C0E7E0EE8704C0E889EF5FE88B6F
:100B98004DCFEE85E03069F445DDE8EEF3E0FA93F9
:100BA800EA930E94F60BE5EDF5E0FA93EA93F6DE98
:100BB800E7C1EE85F0E0E130A0E0FA0711F00C940F
:100BC800920600E010E020E030E0EFEFFFEFEA8768
:100BD800FB87E0E0E887E987EE83EF83E8EEF3E060
:100BE800FA93EA930E94F60BA091B007A13010F097
:100BF80046DCFACF44DC5E2FEE81FF81309739F472
:100C0800513421F4E1E0F0E0EE83FF8338C0E130B5
:100C1800A0E0FA0739F45E3421F4E2E0F0E0EE8374
:100C2800FF832DC0E230A0E0FA0739F45C3221F4EA
:100C3800E3E0F0E0EE83FF8322C0E330A0E0FA07B0
:100C480039F45C3221F4E4E0F0E0EE83FF8317C06E
:100C5800E430A0E0FA0749F4553411F0573521F48F
:100C6800E5E0F0E0EE83FF830AC0E530A0E0FA0794
:100C780031F45C3221F4E6E0F0E0EE83FF83543295
:100C880021F4E885F985309709F419C0FE017C96AE
:100C9800FA93EA9347DC309721F0AE81BF8116972B
:100CA80009F003C020E030E02DC00F5F1F4FE0E0E7
:100CB800EA87EB87E887E987EE83EF8314C054322D
:100CC80069F40F5F1F4FE885F9853196E887F98742
:100CD800E0E0EA87EB87EE83EF8305C0EA85FB85D2
:100CE8003196EA87FB87053FE1E01E071CF021E00B
:100CF80030E008C0EA85FB85DE015C96EA0FFB1F41
:100D0800508378CF022E032A19F0E6EEF5E002C0F0
:100D1800FE017C96FA93EA9341DE32C1E230A0E00C
:100D2800FA0781F5E0EDF7E0FA93EA930E94F60BF3
:100D3800E8EFF5E0FA93EA930E94150AEDE0EA93EA
:100D48004ADBEAE0EA9347DBE4EBF0E0FA93EA9364
:100D58000E94F60BE5E8F1E0FA93EA9380E00E943E
:100D6800BA0B2296EAE5F0E0FA93EA930E94F60BB2
:100D7800EAE1EA9330DBE8ECF0E0FA93EA930E94C8
:100D8800F60BFEC0E330A0E0FA0779F5E0EDF7E0F6
:100D9800FA93EA930E94F60BE0E1F6E0FA93EA93FD
:100DA80040D3EDE0EA9317DBEAE0EA9314DBE4EBE7
:100DB800F0E0FA93EA930E94F60BEEE8F1E0FA937A
:100DC800EA9380E00E94BA0B2296EAE5F0E0FA93F3
:100DD800EA930E94F60BEAE1EA93FDDAE8ECF0E028
:100DE800FA93EA930E94F60BCBC0E430A0E0FA072E
:100DF80079F5E0EDF7E0FA93EA930E94F60BE8E262
:100E0800F6E0FA93EA930DD3EDE0EA93E4DAEAE048
:100E1800EA93E1DAE4EBF0E0FA93EA930E94F60B46
:100E2800E8E9F1E0FA93EA9380E00E94BA0B22968F
:100E3800EAE5F0E0FA93EA930E94F60BEAE1EA9316
:100E4800CADAE8ECF0E0FA93EA930E94F60B98C04D
:100E5800E530A0E0FA07E9F5E0EDF7E0FA93EA9368
:100E68000E94F60BE0E4F6E0FA93EA93DAD2EDE0BA
:100E7800EA93B1DAEAE0EA93AEDAE4EBF0E0FA9367
:100E8800EA930E94F60BF401A181AE3419F4E0EA6A
:100E9800F1E002C0E0EBF1E0FA93EA9380E00E940F
:100EA800BA0B2296EAE5F0E0FA93EA930E94F60B71
:100EB800EAE1EA9390DAE8ECF0E0FA93EA930E9428
:100EC800F60BD401EFE4EC93F4013196AEE4A08381
:100ED80057C0E630A0E0FA0711F00C94B307E0ED34
:100EE800F7E0FA93EA930E94F60BE8E5F6E0FA9346
:100EF800EA9397D2EDE0EA936EDAEAE0EA936BDAE6
:100F0800E4EBF0E0FA93EA930E94F60BF401A18176
:100F1800AE3419F4EFEBF1E002C0EFECF1E0FA9334
:100F2800EA9380E00E94BA0B2296EAE5F0E0FA9391
:100F3800EA930E94F60BEAE1EA934DDAE8ECF0E076
:100F4800FA93EA930E94F60BD401EFE4EC93F401D0
:100F58003196A6E4A083F4013296A08311C0E7304D
:100F6800A0E0FA0741F4E0EDF7E0FA93EA930E9473
:100F7800F60B0FD205C0E0E7F6E0FA93EA930EDD30
:100F88000E94360C6C9608952497E0E0E883E98384
:100F9800EA83EB830E942F0CE89420F8E8EEF3E054
:100FA800FA93EA930E94F60BE0E0ED1520F5102F76
:100FB800032F322F252F542F0E94BA014E2F1B3298
:100FC80051F4033441F43D3431F4243521F45934D7
:100FD80011F44A3309F00EC0DA9B02C0DA9801C056
:100FE800DA9AE4E6F0E0FA93EA930E94F60BE1E07D
:100FF800EE8301C0D9CFEE81E03009F4CCC0E8EE31
:10100800F3E0FA93EA930E94F60BE0E0ED1518F48A
:101018000E94BA01FACFE1E4EA930E94EF01E4E505
:10102800EA930E94EF01EBE2EA930E94EF01E3E406
:10103800EA930E94EF01EDE4EA930E94EF01E7E4EE
:10104800EA930E94EF01E2E5EA930E94EF01EDE3E3
:10105800EA930E94EF01E1E3EA930E94EF01EDE0D9
:10106800EA930E94EF01EAE0EA930E94EF01E0E7C9
:10107800F7E1FA93EA930E94F60BE0E0E987A98585
:10108800A33040F40E94BA01E232E1F7E985EF5F4C
:10109800E987F5CFE0E0E987A985A43150F4E9852F
:1010A800F0E0E454F94FA0E0A083E985EF5FE98719
:1010B800F3CFE1E0E987A985A43178F40E94BA0169
:1010C800EF83AF81A23249F0E985F0E0E454F94FAB
:1010D800A083E985EF5FE987EECFE985F0E03197F6
:1010E800E093BC06E8EEF3E0FA93EA930E94F60B6D
:1010F800DD2059F0102F0E94BA010E2F1D3011F477
:101108000A3009F001C001C0F3CFE0E0E987102FF1
:101118000E94BA010E2FEFE41E2FE03011F00B34BD
:1011280009F001C00BC0E985EF5FE987F0E0E05006
:10113800F040DF01E02F0E941E0CE9CFE985A0E016
:10114800B0E00E941E0CE0E0ED1518F40E94BA0110
:10115800FACFE0E8F6E0FA93EA9363D1E8EEF3E039
:10116800FA93EA930E94F60BECE8F6E0FA93EA9316
:1011780058D1E8EEF3E0FA93EA930E94F60BE8E917
:10118800F6E0FA93EA934DD1E8EEF3E0FA93EA93A6
:101198000E94F60B2CDC0E94360C2A960895FF92CA
:1011A8001A930A93E1E0FE2EF0FE59C0E1E4EA93B7
:1011B8000E94EF01E2E3F0E0FA93EA930E94F60B53
:1011C800E4E5EA930E94EF01E2E3F0E0FA93EA93A0
:1011D8000E94F60BE5E4EA930E94EF01E2E3F0E0F7
:1011E800FA93EA930E94F60BE0E3EA930E94EF0178
:1011F800E2E3F0E0FA93EA930E94F60BEDE0EA935B
:101208000E94EF01E2E3F0E0FA93EA930E94F60B02
:10121800EAE0EA930E94EF01E2E3F0E0FA93EA934E
:101228000E94F60BE4EFF1E0FA93EA930E94F60BC2
:10123800E0E0ED1568F4102F0E94BA010E2F1F345C
:1012480011F40B3409F003C0E894F0F801C0F0CFB2
:10125800E0E0ED1518F40E94BA01FACFA5CF099184
:101268001991FF900895FF920E94310CE1E0FE2E43
:10127800E0E0ED1518F40E94BA01FACFF0FE44C080
:10128800E1E4EA930E94EF01E2E3F0E0FA93EA93E3
:101298000E94F60BE4E5EA930E94EF01E2E3F0E036
:1012A800FA93EA930E94F60BEDE0EA930E94EF01AD
:1012B800E2E3F0E0FA93EA930E94F60BEAE0EA939D
:1012C8000E94EF01E2E3F0E0FA93EA930E94F60B42
:1012D800E4EFF1E0FA93EA930E94F60BE0E0ED15F3
:1012E80068F4032F0E94BA013E2F0F3411F43B34E7
:1012F80009F003C0E894F0F801C0F0CFDD2019F040
:101308000E94BA01FBCFBACF0E94380C2496FF90F6
:101318000895A0E09D99A1E0A03029F0A0E09E9951
:10132800A1E0A03021F4F401A181AE3409F030C06D
:10133800E0E4FFE1FA93EA930E94F60BE4EAF6E0B0
:10134800FA93EA936ED0EDE0EA930E94EF01EAE0A7
:10135800EA930E94EF01E4EBF0E0FA93EA930E942B
:10136800F60BE0EFF1E0FA93EA9380E0FFD12296E2
:10137800EAE5F0E0FA93EA930E94F60BEAE1EA93D1
:101388000E94EF01E8ECF0E0FA93EA930E94F60B72
:1013980008950E94310C00E010E0E0E0ED1518F42B
:1013A8000E94BA01FACFE1E4EA930E94EF01E4E572
:1013B800EA930E94EF01EBE2EA930E94EF01E3E473
:1013C800EA930E94EF01E3E5EA930E94EF01E1E569
:1013D800EA930E94EF01EDE0EA930E94EF01EAE050
:1013E800EA930E94EF01E8EEF3E0FA93EA930E9491
:1013F800F60BE0E0ED1560F40E94BA013E2FF8010B
:10140800DE011496EA0FFB1F30830F5F1F4FF1CFE9
:10141800FE013496FA93EA93C1DA0E94380C2496B6
:1014280008951A93A981BA81ED91A983BA831E2FD1
:10143800E03021F01A930E94EF01F4CFEAE0EA933A
:101448000E94EF0118810BC0EA81EA930E94EF0124
:10145800A881B981ED91FD913196FE93EE93239683
:10146800089526970E942F0C10E0AC85BD85E0E01A
:10147800F0E0ED93FC93EA89FB893196EA8BFB8BCC
:101488003197E4912E2FE03011F40C94B20BE12F38
:10149800E03069F4253211F411E008C02A93ED8593
:1014A800FE85FA93EA93E989FA89099556C1E130EC
:1014B800D9F4253249F42A93ED85FE85FA93EA9307
:1014C800E989FA89099548C112E040E000E02D3227
:1014D80011F401E042C12B3211F44BE23EC120323B
:1014E80011F440E23AC102C0E23039F450E013E0AE
:1014F800203311F4006831C104C0E33011F00C94BA
:10150800B10B203310F02A3308F007C0AAE05A9F25
:10151800502DE22FE0535E0F20C1E22FE33679F41D
:10152800E889F9893497E88BF98BA481AA93ED852A
:10153800FE85FA93EA93E989FA8909950DC1E3379B
:1015480091F4E889F9893497E88BF98BA889B989E6
:1015580014960E940A0CEE83FF83FA93EA930E9482
:10156800E10B1E2F14C0E037B1F4E889F9893497EC
:10157800E88BF98BA889B98914960E940A0CEE8326
:10158800FF83FA93EA930E94EB0B1E2F0860026018
:101598000F7730E043C0E43611F0E93611F4046007
:1015A80002C0E53731F4ECE8F0E0EE83FF8315E0A4
:1015B8000DC0E83511F4086004C0E83711F00C9448
:1015C800B00BE6E9F0E0EE83FF8314E002FF1AC0F7
:1015D800E889F9893497E88BF98BA889B989149631
:1015E8000E940A0CEA87FB87AB85AA232AF40E948B
:1015F800060CEA87FB874DE2403011F01F5F01C0FF
:101608000B7F0CC0E889F9893497E88BF98BA88996
:10161800B98914960E940A0CEA87FB8700FD17C057
:101628001517A8F407FF08C002FF04C00B7F242F7A
:10163800115001C020E301C020E22A93ED85FE8508
:10164800FA93EA93E989FA8909955150E9CF312F3C
:1016580001FF1DC03030D1F003FF06C0EE81FF81CD
:101668002591EE83FF8305C0AE81BF812D91AE83A6
:10167800BF832A93ED85FE85FA93EA93E989FA896F
:101688000995503009F051503150E4CF56C020E34D
:10169800EE81FF810E940E0CE887F987EE81FF81B9
:1016A8003296EE83FF83E885F985AA85BB85AE1758
:1016B800BF0750F02F5FA885B985EA85FB85EA1B2F
:1016C800FB0BEA87FB87EFCF2A3328F003FF02C022
:1016D800295F01C0295D04FD1FC0213320F4A885BE
:1016E800B985119709F409C0531710F000FF01C01C
:1016F8001EC020E207FF10C020E3006102FF0CC0FB
:101708000B7F4A93ED85FE85FA93EA93E989FA8976
:101718000995503009F051502A93ED85FE85FA93CA
:10172800EA93E989FA890995503009F05150315006
:10173800A885B985129708F0AACF00FF0DC05030D0
:1017480059F05150E0E2EA93ED85FE85FA93EA9369
:10175800E989FA890995F3CF10E08DCEAC85BD856E
:101768000E940A0C0E94360C64960895FF92F82E87
:1017780026971A930A93DE0114960E94020C8D0193
:10178800E0E0EC83ED83EE83EF83DE0118960E94A0
:10179800020C0E940A0CFA93EA931A930A93E8E25D
:1017A800FAE0FA93EA93FE013896FA93EA9359DE3F
:1017B800198108812896FF900895A991B991EE277B
:1017C800FF276D91662311F03196FBCF0895AA2764
:1017D800BB27E991F9910590002011F01196FBCFF4
:1017E800FD010895E991F991309639F083E397E086
:1017F8000197F1F7A8953197C9F708950024AF0D1F
:10180800B01D0895F195E195F0400895ED91FC9192
:10181800119708950590F491E02D0895E199FECF70
:10182800FF93FFB7F894AEBBBFBBE09AEDB3FFBF21
:10183800FF910895E19B02C0A895FCCF9FB7F8944B
:10184800AEBBBFBBE09A8DB3E81719F0EDBBE29AC7
:10185800E19A9FBF08955A934A933A932A931A9309
:101868000A9308955D814C813B812A811981088101
:101878000895AC0FBD1F05900D928A95E1F7089564
:00000001FF
