:0C0000000C9456010C9400000C940000BD
:10000C000C9400000C9400000C9400000C94000064
:10001C000C9400000C9400000C9400000C94000054
:10002C000C9400000C9400000C9400000C94000044
:10003C000C9400000C9400000C9400000C948B01A8
:10004C000C9400000C94BB010C9488010C940000DF
:10005C000C9400000C9400000C9400000C94000014
:10006C000C9400000C9400000C9400000C94F7010C
:10007C000C9400000C9441020C9400000C940000B1
:10008C001027E80364000A000100001000011000B2
:10009C00010000000041542B434D47443D31200DDD
:1000AC000041542B434D47443D32200D0041542B0D
:1000BC00434D47443D33200D0041542B434D4744A1
:1000CC003D34200D0041542B434D47443D35200D0C
:1000DC000041542B434D47443D36200D0041542BD9
:1000EC00434D47443D37200D0041542B434D47446D
:1000FC003D38200D0041542B434D47443D39200DD4
:10010C000041542B434D47443D3130200D004154A8
:10011C002B434D47443D3131200D0041542B434D71
:10012C0047443D3132200D0041542B434D47443D53
:10013C003133200D0041542B434D47443D31342085
:10014C000D0041542B434D47443D3135200D0041AA
:10015C0054200D0041542B434D47463D31200D009A
:10016C0041542B434D47533D2230393338343139C8
:10017C003836383322200D0041542B43475053500E
:10018C0057523D31200D0041542B4347505352538D
:10019C00543D31200D004154442030393338343132
:1001AC003938363833200D0001002D4E414E0049B0
:1001BC004E460000010002009E0001000005A00058
:1001CC0001000105A0000C000205A1000C000E05A9
:1001DC00AD000C001A05B9000C002605C5000C007A
:1001EC003205D1000C003E05DD000C004A05E9008B
:1001FC000C005605F5000C00620501010D006E05A2
:10020C000D010D007B051A010D00880527010D005D
:10021C00950534010D00A20541010D00AF054E01FD
:10022C000500BC055B010C00C10560011800CD0583
:10023C006C010C00E505A1000C00F105AD000C00F3
:10024C00FD05B9000C000906C5000C001506D1000F
:10025C000C002106DD0005002D065B010C003206AA
:10026C0060010C003E06A1000C004A06AD000C001B
:10027C005606B9000C006206C5000C006E06D100D3
:10028C000C007A06DD000F00860684010F0095062F
:10029C0093011200A406A2010100F509B4010000AB
:1002AC00F894EE27ECBBF1E0F5BFE5BFE0936C00F2
:1002BC00F8E1F1BDE1BD8DE0A2E0BB27ED938A959D
:1002CC00E9F780E090E1A0E0B1E0ED930197E9F768
:1002DC00E0ECF1E085919591009761F0A591B591D5
:1002EC0005901590BF01F00105900D920197E1F773
:1002FC00FB01F0CFEFEFEDBFE0E1EEBFC0E0D5E0EA
:10030C000C94E80444B055B01895EA93FA93EFB7FF
:10031C00EA931A930A931BB10CB1E12FEC7189F497
:10032C00E62D6394F0E0E653F94F0083E8ECE61514
:10033C0009F46624A394E8ECEA1519F4AA24689449
:10034C0022F80991199127C01A93AA20F1F3EB2DE9
:10035C00B394F0E0E653F94F1081E8ECEB1509F497
:10036C00BB24F894AA94789483C0EA93FA93EFB7D9
:10037C00EA93E0915A08E03071F0E150E0935A08AA
:10038C00EC2DC394F0E0EE56F84FE081ECB9E8ECBC
:10039C00EC1509F4CC24E991EFBFF991E99118958A
:1003AC00A0915A08A83CE1F3F894E0915A08E03087
:1003BC0011F45D9911C0ED2DD394F0E0EE56F84F89
:1003CC00A881A083E8ECED1509F4DD24E0915A082E
:1003DC00EF5FE0935A0802C0E881ECB9789421965B
:1003EC000895AA93EA93FA93EFB7EA931A930A93B0
:1003FC0010919B0000919C00E12FEC71D9F4E091DD
:10040C002309EF5FE09323090E949E050083A091CE
:10041C002309A83C19F4E0E0E0932309A0912509F5
:10042C00AF5FA0932509A83C29F4E0E0E0932509EF
:10043C00689423F8099119913DC01A93E09125090C
:10044C00E030E1F3E0912409EF5FE09324090E948E
:10045C009E051081A0912409A83C19F4E0E0E093DA
:10046C002409F894E0912509E150E093250978944A
:10047C00E12F19910895AA93EA93FA93EFB7EA93AF
:10048C00E091F009E030B1F0E150E093F009E09137
:10049C00EF09EF5FE093EF09E150F0E0EA5DF64F12
:1004AC00E081E0939C00A091EF09A83C19F4E0E0F6
:1004BC00E093EF09E991EFBFF991E991A9911895B2
:1004CC00E881F981FA93EA930E9480053A9790F0BB
:1004DC00A881B9811596AC91A33431F0A881B9816A
:1004EC001596AC91A33619F4E1E0F0E0FDC0E0E024
:1004FC00F0E0FAC0F9C0E2E0F5E00E94A305EEE0FE
:10050C00F5E00E94A305EAE1F5E00E94A305E6E20E
:10051C00F5E00E94A305E2E3F5E00E94A305EEE3FB
:10052C00F5E00E94A305EAE4F5E00E94A305E6E5E8
:10053C00F5E00E94A305E2E6F5E00E94A305EEE6D5
:10054C00F5E00E94A305EBE7F5E00E94A305E8E8BF
:10055C00F5E00E94A305E5E9F5E00E94A305E2EAB7
:10056C00F5E00E94A305EFEAF5E00E94A3050895CB
:10057C000E945A06E0E0EA1510F4E6DEFBCF10E02C
:10058C00143130F40E94AD050E94B5051F5FF8CF01
:10059C00E0E0EA1578F4032FD7DE3E2F0F3411F488
:1005AC003B3409F006C0E0E0EA1510F4CDDEFBCFD9
:1005BC0060C0EECFE4CF0E945A060E94C305D8DF7C
:1005CC0021E02030F1F00E94AD05E5E4EA93E8DE8D
:1005DC00E0E3EA93E5DE0E94B505E0E0EA1558F4A5
:1005EC00102FB2DE0E2F1F3411F40B3409F002C0A1
:1005FC0020E001C0F2CFE0E0EA1510F4A5DEFBCF5D
:10060C00E0CF21E02030F1F00E94AD050E94C90539
:10061C00E6E40E94D9050E94E0050E94C305E0E0D3
:10062C00EA1550F40E94EC051F3411F40B3409F058
:10063C0002C020E001C0F3CFE0E0EA1510F484DE44
:10064C00FBCFE0CF31E03A3078F40E94AD050E9448
:10065C00C905E4E40E94D905E32FE05DEA93A0DE2E
:10066C000E94B5053F5FEFCFE0E0EA1510F46CDEB9
:10067C00FBCF0E94610624960895ECEBF5E00E94F6
:10068C00F105E1ECF5E00E94F105EDECF5E0FA93F3
:10069C00EA930E948A05ECE2F1E00E94FB05E881F6
:1006AC00F981FA93EA930E948A05EAE1EA9378DEEB
:1006BC00E4E1F0E00E94FB05E5EEF5E00E94A30505
:1006CC00E1EFF5E00E94A305EDEFF5E00E94A30534
:1006DC00E9E0F6E00E94A305E5E1F6E00E94A3053F
:1006EC00E1E2F6E00E94A305229608952897E0E047
:1006FC00EE830E9458060E94FF05AA85BB85519780
:10070C0020F0EAE0F0E0EA87FB87E8E8F3E10E94FA
:10071C00FB050E94FF0541E0EA85FB85A42FB0E0B4
:10072C00EA17FB07D8F0102F032F322F252FA42FF9
:10073C00B0E0A050B0400E943B065E2F183541F44B
:10074C00013331F4313321F4203311F4503309F0F7
:10075C0003C0E1E0EC8702C04F5FDECFEC85E030F8
:10076C0019F40E9407065CC00E940C06EF5FFF4F55
:10077C00DF010E943B06EE870E940C06EE5FFF4FE6
:10078C00DF010E943B06EF870E940C06ED5FFF4FD6
:10079C00DF010E943B06E88BAE85A03731F4AF85B4
:1007AC00AF3619F4A889A33709F035C0EFEFFFEF86
:1007BC00E887F987E0E0EE83EF833FDE1E2F1432EB
:1007CC0021F4AE81BF81119709F00DC0FE013E9658
:1007DC00FA93EA9375DE3097F1F4E0E0E887E98765
:1007EC00EE83EF8310C0143249F4EE81FF81319611
:1007FC00EE83FF83E0E0E887E98705C0E885F985AB
:10080C003196E887F987E885F985DE011E96EA0FAF
:10081C00FB1F1083D2CFFE013E96FA93EA932DDF95
:10082C000E945F062E9608952497E0E0E883E98302
:10083C00EA83EB830E945806E89420F80E940F0686
:10084C00E0E0EA15C0F4102F032F322F252F542F80
:10085C007BDD4E2F1B3251F4033441F43D3431F423
:10086C00243521F4593411F44A3309F003C0E1E082
:10087C00EE8301C0E5CFEE81E03009F49FC00E9409
:10088C000F06E0E0EA1510F45FDDFBCF0E941206C4
:10089C00E2E70E94D9050E94E005E0E0E987A9851E
:1008AC00AA3060F4E6E8F6E00E94A305E5E9F6E07C
:1008BC000E94A305E985EF5FE987F1CFE0E0E987C6
:1008CC00A985A33038F440DDE232E9F7E985EF5F22
:1008DC00E987F6CFE0E0E987A985A43140F40E94CE
:1008EC002A06A0E0A083E985EF5FE987F5CFE1E078
:1008FC00E987A985A43168F427DDEF83AF81A232A3
:10090C0041F00E942A06AF81A083E985EF5FE98759
:10091C00F0CFE985F0E03197E093B6060E940F0620
:10092C00AA2049F00E94EC051D3011F40A3009F0A0
:10093C0001C001C0F5CFE0E0E9870E94EC05EFE4CF
:10094C001E2FE03011F00B3409F001C00BC0E9850B
:10095C00EF5FE987F0E0E050F040DF01E02F0E940C
:10096C004706EBCFE985A0E0B0E00E944706E0E047
:10097C00EA1510F4E9DCFBCFE1E0E987A985AA30A0
:10098C0098F40E941206E4E60E94D905E985E05D20
:10099C00EA9306DDEDE0EA9303DDEAE0EA9300DD9D
:1009AC00E985EF5FE987EACFE8ECF0E00E94FB0510
:1009BC00E0E0EA1510F4C8DCFBCF98DE0E945F067D
:1009CC002A960895E0E0EBBBECE4EABBE0E0E8BB80
:1009DC00E0E2E7BBE0E0E5BBE7E0E4BBE0E0E2BB84
:1009EC00E1BBE3B9E2B9E0936200E0936100E0930C
:1009FC006500E0936400E0BFE3BFE2BFE1BFEFBD81
:100A0C00EEBDEDBDECBDE7BDE6BDEBBDEABDE9BDA0
:100A1C00E8BDE0937900E0937800E5BDE4BDE3BD6B
:100A2C00E0938B00E0938A00E0938900E0938800C8
:100A3C00E0938100E0938000E0938700E0938600D0
:100A4C00E0938500E0938400E0938300E0938200C0
:100A5C00E0936A00EABFE9BFE7BFE0937D00E2E004
:100A6C00EBB9E8EDEAB9E6E0E0939500E0E0E0935D
:100A7C009000E7E6E9B9E2E0E0939B00E8EDE09353
:100A8C009A00E6E0E0939D00E0E0E0939800EFEC44
:100A9C00E0939900E0E8E8B9E0E0E0BDE0E4E7B914
:100AAC00EBE8E6B9E0E0EDB9E09374007894A89A2D
:100ABC00E0EDF7E00E94FB05A898E8EBFBE00E9454
:100ACC00FB05E0E0E093F109E093F209E093F30910
:100ADC00E093F40970DD0E940706AA2049F0E3E0D8
:100AEC00EFBDE0EDF7E00E94FB059EDEE3E8EFBD15
:100AFC00F4CFFFCFA991B991EE27FF276D91662313
:100B0C0011F03196FBCF08951A93A981BA81ED911A
:100B1C00A983BA831E2FE03021F01A930E94D601CC
:100B2C00F4CFEAE0EA930E94D60118812396089547
:100B3C00E150F0E0E55AF74F0895FA93EA930E94DA
:100B4C008A05E8EEF3E0FA93EA930C942F06E1E4BD
:100B5C00EA930E94D601E4E5EA930C94D601EDE009
:100B6C00EA930E94D601EAE0EA930E94D601E2E3FE
:100B7C00F0E0FA93EA930C942F06E4E6F0E0FA9393
:100B8C00EA930C942F06EBE2EA930E94D601E3E47D
:100B9C00EA930E94D601EDE4EA930E94D601E7E4C1
:100BAC00EA930C94D601EA930E94D601EDE3EA9302
:100BBC000C94D601E1E3EA930E94D601EDE0EA93AE
:100BCC000E94D601EAE0EA930C94D601102F0E9401
:100BDC00AA010E2F0895FA93EA930E948A05E4E184
:100BEC00F0E0FA93EA930C942F06FA93EA930C94A0
:100BFC002F06A0E0B0E00E943B06F0E0EA87FB87FE
:100C0C0008950E948102E8EEF3E0EFCFE42FF0E0CC
:100C1C000895E8EEF3E0E9CFE1E6EA930E94D6010D
:100C2C00E4E7EA930E94D601EBE2EA930E94D60134
:100C3C00E3E6EA930E94D601EDE6EA930E94D60120
:100C4C00E7E6EA930C94D601E985F0E0EA54F94F13
:100C5C000895E991F991309639F080ED97E001977C
:100C6C00F1F7A8953197C9F70895E199FECFFF9355
:100C7C00FFB7F894AEBBBFBBE09AEDB3FFBFFF91DB
:100C8C000895E19B02C0A895FCCF9FB7F894AEBB2A
:100C9C00BFBBE09A8DB3E81719F0EDBBE29AE19A6D
:100CAC009FBF08955A934A933A932A931A930A939F
:100CBC0008955D814C813B812A81198108810895B9
:00000001FF
