:020000000C945E
:1000020041010C9400000C9400000C9400000C942C
:1000120000000C9400000C9400000C9400000C945E
:1000220000000C9400000C9400000C9400000C944E
:1000320000000C9400000C9400000C9400000C943E
:1000420000000C9400000C9473010C9400000C94BA
:10005200A3010C9400000C9400000C9400000C947A
:1000620000000C9400000C9400000C9400000C940E
:1000720000000C9400000C94D4010C9400000C9429
:100082001B020C9400000C9400001027E80364008B
:100092000A000100001000011000010000000041F0
:1000A200542B434D47443D31200D0041542B434DC9
:1000B20047443D32200D0041542B434D47443D33CC
:1000C200200D0041542B434D47443D34200D004147
:1000D200542B434D47443D35200D0041542B434D95
:1000E20047443D36200D0041542B434D47443D3794
:1000F200200D0041542B434D47443D38200D004113
:10010200542B434D47443D39200D0041542B434D60
:1001120047443D3130200D0041542B434D47443D6F
:100122003131200D0041542B434D47443D313220A3
:100132000D0041542B434D47443D3133200D0041C6
:10014200542B434D47443D3134200D0041542B4341
:100152004D47443D3135200D004154200D0041549E
:100162002B434D47463D31200D0041542B434D4713
:10017200533D223039333535373536363531222045
:100182000D0041544420303933383431393836384F
:1001920033200D0001002D4E414E00494E46000015
:1001A200010002009E0001000005A00001000105FF
:1001B200A0000C000205A1000C000E05AD000C0011
:1001C2001A05B9000C002605C5000C003205D10045
:1001D2000C003E05DD000C004A05E9000C00560546
:1001E200F5000C00620501010D006E050D010D0008
:1001F2007B051A010D00880527010D0095053401C4
:100202000D00A20541010D00AF054E010500BC0520
:100212005B010C00C10560011800CD056C010C00EA
:10022200E505A1000C00F105AD000C00FD05B900CB
:100232000C000906C5000C001506D1000C002106B1
:10024200DD0005002D065B010C00320660010C008A
:100252003E06A1000C004A06AD000C005606B9008D
:100262000C006206C5000C006E06D1000C007A0676
:10027200DD001200860684010100D5099601000006
:10028200F894EE27ECBBF1E0F5BFE5BFE0936C001C
:10029200F8E1F1BDE1BD8DE0A2E0BB27ED938A95C7
:1002A200E9F780E090E1A0E0B1E0ED930197E9F792
:1002B200E2EAF1E085919591009761F0A591B591FF
:1002C20005901590BF01F00105900D920197E1F79D
:1002D200FB01F0CFEFEFEDBFE0E1EEBFC0E0D5E014
:1002E2000C94BB04EA93FA93EFB7EA931A930A9336
:1002F2001BB10CB1E12FEC7189F4E42D4394F0E0D1
:10030200E455F94F0083E8ECE41509F4442483949E
:10031200E8ECE81519F48824689422F809911991F7
:1003220023C01A938820F1F3E92D9394F0E0E45569
:10033200F94F1081E8ECE91509F49924F8948A94AC
:10034200789475C0EA93FA93EFB7EA93DD2061F0EF
:10035200DA94EA2DA394F0E0EC58F84FE081ECB97E
:10036200E8ECEA1509F4AA24E991EFBFF991E991C1
:100372001895E8ECED15E9F3F894DD2011F45D9998
:100382000DC0EB2DB394F0E0EC58F84FA881A08398
:10039200E8ECEB1509F4BB24D39402C0E881ECB974
:1003A200789421960895AA93EA93FA93EFB7EA9381
:1003B2001A930A9310919B0000919C00E12FEC711B
:1003C200B1F4EC2DC394F0E0E45CF74F0083E8EC69
:1003D200EC1509F4CC24A0910509AF5FA09305099F
:1003E200A83C29F4E0E0E0930509689423F8099118
:1003F20019913FC01A93E0910509E030E1F3E091D1
:100402000409EF5FE0930409E150F0E0E45CF74F88
:100412001081A0910409A83C19F4E0E0E0930409DA
:10042200F894E0910509E150E09305097894E12FF1
:1004320019910895AA93EA93FA93EFB7EA93E09198
:10044200D009E030B1F0E150E093D009E091CF095A
:10045200EF5FE093CF09E150F0E0EA5FF64FE08111
:10046200E0939C00A091CF09A83C19F4E0E0E0934E
:10047200CF09E991EFBFF991E991A9911895E88126
:10048200F981FA93EA930E944A053A9790F0A8817B
:10049200B9811596AC91A33431F0A881B981159632
:1004A200AC91A33619F4E1E0F0E003C1E0E0F0E042
:1004B20000C1FFC0E2E0F5E00E946805EEE0F5E071
:1004C2000E946805EAE1F5E00E946805E6E2F5E0CF
:1004D2000E946805E2E3F5E00E946805EEE3F5E0BC
:1004E2000E946805EAE4F5E00E946805E6E5F5E0A9
:1004F2000E946805E2E6F5E00E946805EEE6F5E096
:100502000E946805EBE7F5E00E946805E8E8F5E07F
:100512000E946805E5E9F5E00E946805E2EAF5E077
:100522000E946805EFEAF5E00E94680508950E94BE
:100532002506E0E0E81510F4F4DEFBCF10E01431FC
:1005420030F40E9472050E947A051F5FF8CFE0E046
:10055200E81578F4032FE5DE3E2F0F3411F43B3417
:1005620009F006C0E0E0E81510F4DBDEFBCF66C060
:10057200EECFA99A0E948805A9980E948E05DECF27
:100582000E9425060E948E05D2DF21E02030F1F084
:100592000E949405E5E4EA93ECDEE0E3EA93E9DE07
:1005A2000E947A05E0E0E81558F4102FBADE0E2F0B
:1005B2001F3411F40B3409F002C020E001C0F2CF65
:1005C200E0E0E81510F4ADDEFBCFE0CF21E0203013
:1005D200F1F00E9494050E949C05E6E40E94AC059D
:1005E2000E94B3050E948E05E0E0E81550F40E94D7
:1005F200BF051F3411F40B3409F002C020E001C022
:10060200F3CFE0E0E81510F48CDEFBCFE0CF31E071
:100612003A3078F40E9494050E949C05E4E40E941A
:10062200AC05E32FE05DEA93A4DE0E947A053F5F0A
:10063200EFCFE0E0E81510F474DEFBCF0E942C0649
:1006420024960895ECEBF5E00E94C405E1ECF5E098
:100652000E94C405EDECF5E0FA93EA930E9454057A
:10066200ECE2F1E00E94CE05E881F981FA93EA9387
:100672000E945405EAE1EA937CDEE4E1F0E00E94A4
:10068200CE05E5EEF5E00E946805E1EFF5E00E9497
:100692006805EDEFF5E00E946805E9E0F6E00E94EA
:1006A2006805E5E1F6E00E946805E1E2F6E00E94F5
:1006B2006805229608952897E0E0EE830E942306BB
:1006C2000E94D205AA85BB85519720F0EAE0F0E0AE
:1006D200EA87FB87E8E8F3E10E94CE050E94D20593
:1006E20041E0EA85FB85A42FB0E0EA17FB07D8F0CA
:1006F200102F032F322F252FA42FB0E0A050B0408F
:100702000E9406065E2F183541F4013331F431336D
:1007120021F4203311F4503309F003C0E1E0EC87F7
:1007220002C04F5FDECFEC85E03019F40E94DA059B
:100732005CC00E94DF05EF5FFF4FDF010E940606EB
:10074200EE870E94DF05EE5FFF4FDF010E94060683
:10075200EF870E94DF05ED5FFF4FDF010E94060673
:10076200E88BAE85A03731F4AF85AF3619F4A8898E
:10077200A33709F035C0EFEFFFEFE887F987E0E034
:10078200EE83EF8337DE1E2F143221F4AE81BF8158
:10079200119709F00DC0FE013E96FA93EA936FDEBF
:1007A2003097F1F4E0E0E887E987EE83EF8310C049
:1007B200143249F4EE81FF813196EE83FF83E0E04B
:1007C200E887E98705C0E885F9853196E887F987E2
:1007D200E885F985DE011E96EA0FFB1F1083D2CF52
:1007E200FE013E96FA93EA932DDF0E942A062E9688
:1007F20008952497E0E0E883E983EA83EB830E948B
:100802002306E89420F80E94E205E0E0E815C0F42F
:10081200102F032F322F252F542F83DD4E2F1B3203
:1008220051F4033441F43D3431F4243521F4593484
:1008320011F44A3309F003C0E1E0EE8301C0E5CFD1
:10084200EE81E03009F492C00E94E205E0E0E81592
:1008520010F467DDFBCF0E9472050E94E505E2E716
:100862000E94AC050E94B305E0E0E987A985A330A8
:1008720038F457DDE232E9F7E985EF5FE987F6CF31
:10088200E0E0E987A985A43140F40E94F505A0E0E3
:10089200A083E985EF5FE987F5CFE1E0E987A985E4
:1008A200A43168F43EDDEF83AF81A23241F00E94B1
:1008B200F505AF81A083E985EF5FE987F0CFE98590
:1008C200F0E03197E09398060E94E205882049F013
:1008D2000E94BF051D3011F40A3009F001C001C0A9
:1008E200F5CFE0E0E9870E94BF05EFE41E2FE0307C
:1008F20011F00B3409F001C00BC0E985EF5FE98705
:10090200F0E0E050F040DF01E02F0E941206EBCF52
:10091200E985A0E0B0E00E941206E0E0E81510F4DC
:1009220000DDFBCFE1E0E987A985AA30A8F40E94A7
:1009320072050E94E505E4E60E94AC05E985E05DEA
:10094200EA9317DDEDE0EA9314DDEAE0EA9311DDC4
:10095200E985EF5FE987E8CFE8ECF0E00E94CE0599
:10096200E0E0E81510F4DDDCFBCFA5DE0E942A06EC
:100972002A960895E0E0EBBBE0E4EABBE0E0E8BBE6
:10098200E7BBE5BBE1E0E4BBE0E0E2BBE1BBE3B92E
:10099200E2B9E0936200E0936100E0936500E093C6
:1009A2006400E0BFE3BFE2BFE1BFEFBDEEBDEDBD5E
:1009B200ECBDE7BDE6BDEBBDEABDE9BDE8BDE09338
:1009C2007900E0937800E5BDE4BDE3BDE0938B00E0
:1009D200E0938A00E0938900E0938800E09381002D
:1009E200E0938000E0938700E0938600E093850027
:1009F200E0938400E0938300E0938200E0936A0036
:100A0200EABFE9BFE7BFE0937D00E2E0EBB9E8EDC2
:100A1200EAB9E6E0E0939500E0E0E0939000E7E6D3
:100A2200E9B9E2E0E0939B00E8EDE0939A00E6E0AA
:100A3200E0939D00E0E0E0939800EFECE0939900F2
:100A4200E0E8E8B9E0E0E0BDE6B9EDB9E0937400B2
:100A52007894DE980E948805DE9AE0E2FEE40E9425
:100A6200CE05E0E0E093D109E093D209E093D30907
:100A7200E093D40985DD0E94DA05A99A882039F02D
:100A8200E3E0EFBD0E948805B4DEE3E8EFBDF5CFF9
:100A9200FFCFA991B991EE27FF276D91662311F03F
:100AA2003196FBCF08951A93A981BA81ED91A9835A
:100AB200BA831E2FE03021F01A930E94BA01F4CFBC
:100AC200EAE0EA930E94BA01188123960895FA9304
:100AD200EA930E945405E8EEF3E0FA93EA930C9449
:100AE200FA05E1E6EA930E94BA01E4E7EA930C947C
:100AF200BA01EDE0EA930E94BA01EAE0EA930E94A9
:100B0200BA01E2E3F0E0FA93EA930C94FA05E0ED1D
:100B1200F7E0FA93EA930C94FA05E4E6F0E0FA932C
:100B2200EA930C94FA05E1E4EA930E94BA01E4E53F
:100B3200EA930C94BA01EBE2EA930E94BA01E3E46D
:100B4200EA930E94BA01EDE4EA930E94BA01E7E453
:100B5200EA930C94BA01EA930E94BA01EDE3EA9394
:100B62000C94BA01E1E3EA930E94BA01EDE0EA9340
:100B72000E94BA01EAE0EA930C94BA01102F0E9493
:100B820092010E2F0895FA93EA930E945405E4E12C
:100B9200F0E0FA93EA930C94FA05FA93EA930C9430
:100BA200FA05A0E0B0E00E940606F0E0EA87FB87C3
:100BB20008950E945B02E8EEF3E0EFCFE42FF0E04D
:100BC2000895E8EEF3E0E9CFEBE2EA930E94BA017E
:100BD200E3E6EA930E94BA01EDE6EA930E94BA01C3
:100BE200E7E6EA930C94BA01E985F0E0E856F94F9A
:100BF2000895E991F991309639F080ED97E00197E7
:100C0200F1F7A8953197C9F70895E199FECFFF93BF
:100C1200FFB7F894AEBBBFBBE09AEDB3FFBFFF9145
:100C22000895E19B02C0A895FCCF9FB7F894AEBB94
:100C3200BFBBE09A8DB3E81719F0EDBBE29AE19AD7
:100C42009FBF08955A934A933A932A931A930A9309
:100C520008955D814C813B812A8119810881089523
:00000001FF
