:0E0000000C947F010C9400000C9400000C94F2
:10000E0000000C9400000C9400000C9400000C9462
:10001E0000000C9400000C9400000C9400000C9452
:10002E0000000C9400000C9400000C9400000C9442
:10003E0000000C9400000C9400000C94B1010C9480
:10004E0000000C94E5010C9400000C9400000C943C
:10005E0000000C9400000C9400000C9400000C9412
:10006E0000000C9400000C9400000C942A020C94D6
:10007E0000000C9400000C9400000C94000010275B
:10008E00E80364000A0001000010000110000100E6
:10009E0000000000000000000000000000054F46B8
:1000AE00460041542B434D47443D31200D004154F1
:1000BE002B434D47443D32200D0041542B434D47B9
:1000CE00443D33200D0041542B434D47443D3420D5
:1000DE000D0041542B434D47443D35200D004154F6
:1000EE002B434D47443D36200D0041542B434D4785
:1000FE00443D37200D0041542B434D47443D38209D
:10010E000D0041542B434D47443D39200D004154C1
:10011E002B434D47443D3130200D0041542B434D70
:10012E0047443D3131200D0041542B434D47443D52
:10013E003132200D0041542B434D47533D2230396F
:10014E0033383431393836383322200D0047534D89
:10015E00204F4E00696E76616C696420636F6D6D21
:10016E00616E642100646174612069732066616947
:10017E006C642021212100416C61726D204F4E0074
:10018E0053696C656E74204F4E0053746F70204F20
:10019E004E00534543555249545920776173204FB1
:1001AE004E005345435552495459206973204F4EC2
:1001BE00005345435552495459206973204F4646C2
:1001CE0000534543555249545920776173204F4689
:1001DE004600696E76616C696420636F6D6D616E49
:1001EE006400446F7A442100506F77657220537516
:1001FE0070706C79206F6666202120506C6561737B
:10020E006520436865636B20612043617220566FE1
:10021E006C74615A680001002D4E414E00494E46E5
:10022E000000010002009E0004000005AC00010069
:10023E000405AF0001000505AF000C000605B00077
:10024E000C001205BC000C001E05C8000C002A058F
:10025E00D4000C003605E0000C004205EC000C004A
:10026E004E05F8000C005A0504010C00660510013D
:10027E000D0072051C010D007F0529010D008C0576
:10028E0036010C009905B0001800A50543011800B1
:10029E00BD0543011100D50562011200E60573018B
:1002AE001800F8054301180010064301180028062F
:1002BE004301180040064301180058064301100080
:1002CE007006E0010C008006B0000C008C06B00039
:1002DE000C009806BC001800A40643011800BC06CA
:1002EE00430102000800AA000100C9072402000011
:1002FE00F894EE27ECBBF1E0F5BFE5BFE0936C00A0
:10030E00F8E1F1BDE1BD8DE0A2E0BB27ED938A954A
:10031E00E9F780E090E1A0E0B1E0ED930197E9F715
:10032E00E0E3F2E085919591009761F0A591B5918A
:10033E0005901590BF01F00105900D920197E1F720
:10034E00FB01F0CFEFEFEDBFE0E1EEBFC0E0D5E097
:10035E000C94CD02EA93FA93EFB7EA931A930A93A9
:10036E001BB10CB1E12FEC7189F4EB2DB394F0E0DD
:10037E00E851F94F0083E0E5EB1509F4BB24D39463
:10038E00E0E5ED1519F4DD24689422F80991199130
:10039E00E991EFBFF991E99118951A93DD20F1F3E8
:1003AE00EA2DA394F0E0E851F94F1081E0E5EA154B
:1003BE0009F4AA24F894DA94789495C0AA93EA934F
:1003CE00FA93EFB7EA93E0916107E030A9F0E150BC
:1003DE00E0936107E0916007EF5FE0936007E15003
:1003EE00F0E0E85CF84FE081ECB9A0916007A8322C
:1003FE0019F4E0E0E0936007E991EFBFF991E9911C
:10040E00A9911895A0916107A832E1F3F894E091B3
:10041E006107E03011F45D9911C0EC2DC394F0E04A
:10042E00E85CF84FA881A083E8E2EC1509F4CC242F
:10043E00E0916107EF5FE093610702C0E881ECB9DC
:10044E00789421960895AA93EA93FA93EFB7EA93D4
:10045E001A930A9310919B0000919C00E12FEC716E
:10046E00E9F4E091C607EF5FE093C607E150F0E0D4
:10047E00EE59F84F0083A091C607A43619F4E0E0B8
:10048E00E093C607A091C807AF5FA093C807A43634
:10049E0029F4E0E0E093C807689423F809911991D4
:1004AE00E991EFBFF991E991A99118951A93E0910D
:1004BE00C807E030E1F3E091C707EF5FE093C707AD
:1004CE00E150F0E0EE59F84F1081A091C707A43625
:1004DE0019F4E0E0E093C707F894E091C807E15003
:1004EE00E093C8077894E12F19910895E1E4EA9317
:1004FE0089DFE4E5EA9386DFEBE2EA9383DFE3E468
:10050E00EA9380DFE7E4EA937DDFE0E5EA937ADFC2
:10051E00E3E5EA9377DFE2E5EA9374DFE3E5EA9356
:10052E0071DFE4E5EA936EDFEDE3EA936BDFE1E37F
:10053E00EA9368DFE4E1F0E0FA93EA930E94590C43
:10054E00EDE0EA935FDFEAE0EA935CDFE8E8F3E1EF
:10055E0046C1E881F981FA93EA930E94440C3A97D6
:10056E0090F0A881B9811596AC91A33431F0A88191
:10057E00B9811596AC91A33619F4E1E0F0E074C29E
:10058E00E0E0F0E071C2E0E0F0E06EC2E0E0EBBB74
:10059E00EABBE8BBE0E7E7BBE0E0E5BBE7E0E4BBD6
:1005AE00E0E0E2BBE0EAE1BBE0E0E2BFEFBDEEBDC2
:1005BE00E5BDE0938B00E0938A00E0936A00EABF0A
:1005CE00E9BFE7BFE0937D00EBB9E8EDEAB9E6E0FD
:1005DE00E0939500E0E0E0939000EFE2E9B9E0E00F
:1005EE00E0939B00E0E9E0939A00E6E0E0939D0043
:1005FE00E0E0E0939800EFE2E0939900E0E8E8B9DC
:10060E00E0E0E0BDE6B9EDB9E09374007894A89A05
:10061E00959AECEDF5E0FA93EA930E94590C9598B1
:10062E00E0E1F7E2FA93EA930E94590C79D614D6D8
:10063E00C69AEBE4F0E0FA93EA930E94590CC6983E
:10064E0030D0D2D053DFC69AEFE5F0E0FA93EA93BA
:10065E000E94590CC698E0E0ED1510F49EDEFBCF1B
:10066E00A898979B02C0979801C0979AE6E9F0E088
:10067E00FA93EA930E94590CDD2009F0E2D4AA9B6A
:10068E0002C0AA9801C0AA9AE8ECF0E0FA93EA93A5
:10069E000E94590CF401A181AE3409F497D6E0CF33
:1006AE00FFCFE8EEF3E0FA93EA930E94590CE6E0EE
:1006BE00F5E0FA93EA930E94780AE8EEF3E0FA93F3
:1006CE00EA930E94590CE2E1F5E0FA93EA930E9454
:1006DE00780AE8EEF3E0FA93EA930E94590CEEE101
:1006EE00F5E0FA93EA930E94780AE8EEF3E0FA93C3
:1006FE00EA930E94590CEAE2F5E0FA93EA930E941B
:10070E00780AE8EEF3E0FA93EA930E94590CE6E3D6
:10071E00F5E0FA93EA930E94780AE8EEF3E0FA9392
:10072E00EA930E94590CE2E4F5E0FA93EA930E94F0
:10073E00780AE8EEF3E0FA93EA930E94590CEEE49D
:10074E00F5E0FA93EA930E94780AE8EEF3E0FA9362
:10075E00EA930E94590CEAE5F5E0FA93EA930E94B7
:10076E00780AE8EEF3E0FA93EA930E94590CE6E673
:10077E00F5E0FA93EA930E94780AE8EEF3E0FA9332
:10078E00EA930E94590CE2E7F5E0FA93EA930E948D
:10079E00780AE8EEF3E0FA93EA930E94590CEFE739
:1007AE00F5E0FA93EA930E94780AE8EEF3E0FA9302
:1007BE00EA930E94590CECE8F5E0FA93EA930E9452
:1007CE00780AE8EEF3E0FA93EA930E94590CE9E90D
:1007DE00F5E0FA93EA930E94780AE8EEF3E0FA93D2
:1007EE00EA930E94590C08950E94940CE0E0ED15D6
:1007FE0010F4D3DDFBCFE4E6F0E0FA93EA930E9427
:10080E00590CE1E4EA93FEDDE4E5EA93FBDDEBE26D
:10081E00EA93F8DDE3E4EA93F5DDEDE4EA93F2DD45
:10082E00E7E4EA93EFDDE6E4EA93ECDDEDE3EA9349
:10083E00E9DDE1E3EA93E6DDEAE0F0E0FA93EA933C
:10084E000E94590CEDE0EA93DDDDEAE0EA93DADD91
:10085E00E4E6F0E0FA93EA930E94590CE0E0ED151D
:10086E0058F4102F9ADD0E2F1F3411F40B3409F0AB
:10087E0002C030E001C0F2CFE0E0ED1510F48DDDE6
:10088E00FBCFE4E6F0E0FA93EA930E94590CE1E420
:10089E00EA93B8DDEAE0F0E0FA93EA930E94590C8D
:1008AE00E4E5EA93AFDDEAE0F0E0FA93EA930E9422
:1008BE00590CEDE0EA93A6DDEAE0EA93A3DDE0E56C
:1008CE00F0E0FA93EA930E94590CEDE0EA939ADD78
:1008DE00EAE0EA9397DDE4E1F0E0FA93EA930E940E
:1008EE00590CE1E4EA938EDDE4E5EA938BDDEBE26D
:1008FE00EA9388DDE3E4EA9385DDE7E4EA9382DDBB
:10090E00E0E5EA937FDDE3E5EA937CDDE0E5EA935B
:10091E0079DDE7E5EA9376DDE2E5EA9373DDEDE373
:10092E00EA9370DDE1E3EA936DDDEAE0F0E0FA933D
:10093E00EA930E94590CEDE0EA9364DDEAE0EA9353
:10094E0061DDE0E5F0E0FA93EA930E94590CECE6E3
:10095E00F7E0FA93EA930E94590CE1E4EA9352DD30
:10096E00E4E5EA934FDDEBE2EA934CDDE3E4EA9350
:10097E0049DDE7E4EA9346DDE0E5EA9343DDE3E5AE
:10098E00EA9340DDE2E5EA933DDDE3E5EA933ADD05
:10099E00E4E5EA9337DDEDE3EA9334DDE1E3EA9350
:1009AE0031DDE4E1F0E0FA93EA930E94590CEDE0B8
:1009BE00EA9328DDEAE0EA9325DDE8E1F1E0FA9337
:1009CE00EA930E94590CE5EAF5E0FA93EA930E9445
:1009DE00780AEDE0EA9316DDEAE0EA9313DDE4EB44
:1009EE00F0E0FA93EA930E94590CEBE5F1E0FA93EA
:1009FE00EA9380E00E941D0C2296EAE5F0E0FA935D
:100A0E00EA930E94590CEAE1EA93FCDCE8ECF0E090
:100A1E00FA93EA930E94590C60C5EDEBF5E0FA9358
:100A2E00EA930E94780AEDE0EA93ECDCEAE0EA93BE
:100A3E00E9DCE4EBF0E0FA93EA930E94590CE881CA
:100A4E00F981FA93EA930E94780AEAE5F0E0FA93C4
:100A5E00EA930E94590CEAE1EA93D4DCE8ECF0E068
:100A6E00FA93EA930E94590C22960895669789E0AC
:100A7E00A0E0B0E0E0EAF0E00E94A00C0E94920C30
:100A8E0000E010E020E030E0A0E0B0E00E94750C45
:100A9E00F0E0EC87FD87AC85BD851B9720F0EAE082
:100AAE00F0E0EC87FD87E1E0E88BEC85FD85A88919
:100ABE00B0E0EA17FB0710F40C940F06542F4B8D81
:100ACE00EA8DEB8FE98DEA8FE88DE98FEF89E88F5C
:100ADE00EE89EF8BA889B0E0A050B0400E94750C53
:100AEE00EE8BAE89A13610F0AB3708F004C0EE895C
:100AFE00F0E0B097EE8B503559F4413349F4AB8D9D
:100B0E00A33331F4AA8DA93319F4A98DA13309F0B9
:100B1E0003C0E1E0EE877CC0AA8DA13461F4A98DFB
:100B2E00AC3449F4A88DA13431F4AF89A23519F44F
:100B3E00AE89AD3409F003C0E2E0EE8769C0AB8D3B
:100B4E00A33579F4AA8DA93461F4A98DAC3449F496
:100B5E00A88DA53431F4AF89AE3419F4AE89A4351D
:100B6E0009F003C0E3E0EE8753C0A98DA33549F425
:100B7E00A88DA43531F4AF89AF3419F4AE89A03500
:100B8E0009F003C0E4E0EE8743C0AA8DA33561F4FB
:100B9E00A98DA53449F4A88DA33431F4AF89AF34AF
:100BAE0019F4AE89AE3409F003C0E5E0EE8730C02B
:100BBE00AB8DA33579F4AA8DA53461F4A98DA33438
:100BCE0049F4A88DAF3431F4AF89A63419F4AE8947
:100BDE00A63409F003C0E6E0EE871AC0AB8DA73449
:100BEE0079F4AA8DA53461F4A98DA43549F4A88DA4
:100BFE00A13431F4AF89AE3419F4AE89A43509F0BD
:100C0E0003C0E7E0EE8704C0E889EF5FE88B4DCFC5
:100C1E00EE85E03069F445DDE8EEF3E0FA93EA9311
:100C2E000E94590CE5EDF5E0FA93EA93F6DE05C263
:100C3E00EE85F0E0E130A0E0FA0711F00C94D60654
:100C4E0000E010E020E030E0EFEFFFEFEA87FB87F7
:100C5E00E0E0E887E987EE83EF83E8EEF3E0FA93CE
:100C6E00EA930E94590CA091C807A13010F01EDC27
:100C7E00FACFC49A1BDC5E2FEE81FF81309739F4D8
:100C8E00513421F4E1E0F0E0EE83FF8338C0E1302F
:100C9E00A0E0FA0739F45E3421F4E2E0F0E0EE83EE
:100CAE00FF832DC0E230A0E0FA0739F45C3221F464
:100CBE00E3E0F0E0EE83FF8322C0E330A0E0FA072A
:100CCE0039F45C3221F4E4E0F0E0EE83FF8317C0E8
:100CDE00E430A0E0FA0749F4553411F0573521F409
:100CEE00E5E0F0E0EE83FF830AC0E530A0E0FA070E
:100CFE0031F45C3221F4E6E0F0E0EE83FF8354320F
:100D0E0021F4E885F985309709F419C0FE017C9627
:100D1E00FA93EA931EDC309721F0AE81BF811697CD
:100D2E0009F003C020E030E02DC00F5F1F4FE0E060
:100D3E00EA87EB87E887E987EE83EF8314C05432A6
:100D4E0069F40F5F1F4FE885F9853196E887F987BB
:100D5E00E0E0EA87EB87EE83EF8305C0EA85FB854B
:100D6E003196EA87FB87053FE1E01E071CF021E084
:100D7E0030E008C0EA85FB85DE015C96EA0FFB1FBA
:100D8E00508378CF022E032A19F0E6EEF5E002C06A
:100D9E00FE017C96FA93EA9340DEC4984EC1E2308F
:100DAE00A0E0FA0791F5C69AE0EDF7E0FA93EA9320
:100DBE000E94590CE8EFF5E0FA93EA930E94780A44
:100DCE00EDE0EA931FDBEAE0EA931CDBE4EBF0E0F4
:100DDE00FA93EA930E94590CE5E8F1E0FA93EA934C
:100DEE0080E00E941D0C2296EAE5F0E0FA93EA9369
:100DFE000E94590CEAE1EA9305DBE8ECF0E0FA9385
:100E0E00EA930E94590CC69A18C1E330A0E0FA0783
:100E1E0099F5C498C698C598E0EDF7E0FA93EA9371
:100E2E000E94590CE0E1F6E0FA93EA930E94780AE8
:100E3E00EDE0EA93E7DAEAE0EA93E4DAE4EBF0E0F5
:100E4E00FA93EA930E94590CEEE8F1E0FA93EA93D2
:100E5E0080E00E941D0C2296EAE5F0E0FA93EA93F8
:100E6E000E94590CEAE1EA93CDDAE8ECF0E0FA934D
:100E7E00EA930E94590CE1C0E430A0E0FA0781F534
:100E8E00C59AE0EDF7E0FA93EA930E94590CE8E276
:100E9E00F6E0FA93EA9325D3EDE0EA93B3DAEAE0CB
:100EAE00EA93B0DAE4EBF0E0FA93EA930E94590C7D
:100EBE00E8E9F1E0FA93EA9380E00E941D0C229695
:100ECE00EAE5F0E0FA93EA930E94590CEAE1EA931C
:100EDE0099DAE8ECF0E0FA93EA930E94590CADC06F
:100EEE00E530A0E0FA0711F00C94C207C69AE6E4CA
:100EFE00F0E0FA93EA930E94590CC698E0EDF7E001
:100F0E00FA93EA930E94590CE0E4F6E0FA93EA931E
:100F1E00E8D2EDE0EA9376DAEAE0EA9373DAE4EB0C
:100F2E00F0E0FA93EA930E94590CF401A181AE34D9
:100F3E0019F4E0EAF1E002C0E0EBF1E0FA93EA9393
:100F4E0080E00E941D0C2296EAE5F0E0FA93EA9307
:100F5E000E94590CEAE1EA9355DAE8ECF0E0FA93D4
:100F6E00EA930E94590CD401EFE4EC93F40131960C
:100F7E00AEE4A08362C0E630A0E0FA0711F00C9454
:100F8E001208C69AE6E4F0E0FA93EA930E94590C2E
:100F9E00C698E0EDF7E0FA93EA930E94590CE8E563
:100FAE00F6E0FA93EA939DD2EDE0EA932BDAEAE0CB
:100FBE00EA9328DAE4EBF0E0FA93EA930E94590CF4
:100FCE00F401A181AE3419F4EFEBF1E002C0EFECC5
:100FDE00F1E0FA93EA9380E00E941D0C2296EAE576
:100FEE00F0E0FA93EA930E94590CEAE1EA930E9428
:100FFE000902E8ECF0E0FA93EA930E94590CC698C5
:10100E00D401EFE4EC93F4013196A6E4A083F4014D
:10101E003296A08312C0E730A0E0FA0741F4E0ED6B
:10102E00F7E0FA93EA930E94590C13D206C0E0E758
:10103E00F6E0FA93EA93F1DCC5980E94990C6C964F
:10104E0008952497E0E0E883E983EA83EB830E9426
:10105E00920CE89420F8E8EEF3E0FA93EA930E94FB
:10106E00590CA89AE0E0ED1508F5102F032F322F3A
:10107E00252F542F0E94D4014E2F1B3251F40334CE
:10108E0041F43D3431F4243521F4593411F44A330A
:10109E0009F00BC0C49AE4E6F0E0FA93EA930E94DA
:1010AE00590CC498E1E0EE8301C0DCCFEE81E03054
:1010BE0009F4CEC0E8EEF3E0FA93EA930E94590CDD
:1010CE00E0E0ED1518F40E94D401FACFA898A99A81
:1010DE00E1E4EA930E940902E4E5EA930E94090220
:1010EE00EBE2EA930E940902E3E4EA930E9409020A
:1010FE00EDE4EA930E940902E7E4EA930E940902F2
:10110E00E2E5EA930E940902EDE3EA930E940902E6
:10111E00E1E3EA930E940902EDE0EA930E940902DC
:10112E00EAE0EA930E940902E0E7F7E1FA93EA9314
:10113E000E94590CE0E0E987A985A33040F40E9493
:10114E00D401E232E1F7E985EF5FE987F5CFE0E020
:10115E00E987A985A43150F4E985F0E0EC52F94F06
:10116E00A0E0A083E985EF5FE987F3CFE1E0E987AF
:10117E00A985A43178F40E94D401EF83AF81A23205
:10118E0049F0E985F0E0EC52F94FA083E985EF5F75
:10119E00E987EECFE985F0E03197E093D406E8EEEB
:1011AE00F3E0FA93EA930E94590CDD2059F0102FC8
:1011BE000E94D4010E2F1D3011F40A3009F001C027
:1011CE0001C0F3CFE0E0E987102F0E94D4010E2F6B
:1011DE00EFE41E2FE03011F00B3409F001C00BC00C
:1011EE00E985EF5FE987F0E0E050F040DF01E02FA6
:1011FE000E94810CE9CFE985A0E0B0E00E94810C4D
:10120E00E0E0ED1518F40E94D401FACFE0E8F6E024
:10121E00FA93EA9366D1E8EEF3E0FA93EA930E942A
:10122E00590CECE8F6E0FA93EA935BD1E8EEF3E0C2
:10123E00FA93EA930E94590CE8E9F6E0FA93EA93DE
:10124E0050D1E8EEF3E0FA93EA930E94590C0EDCCB
:10125E000E94990C2A960895FF921A930A93E1E040
:10126E00FE2EF0FE59C0E1E4EA930E940902E2E389
:10127E00F0E0FA93EA930E94590CE4E5EA930E9497
:10128E000902E2E3F0E0FA93EA930E94590CE5E4D6
:10129E00EA930E940902E2E3F0E0FA93EA930E94D5
:1012AE00590CE0E3EA930E940902E2E3F0E0FA93BC
:1012BE00EA930E94590CEDE0EA930E940902E2E3E0
:1012CE00F0E0FA93EA930E94590CEAE0EA930E9446
:1012DE000902E2E3F0E0FA93EA930E94590CE4EF7C
:1012EE00F1E0FA93EA930E94590CE0E0ED1568F4F0
:1012FE00102F0E94D4010E2F1F3411F40B3409F05D
:10130E0003C0E894F0F801C0F0CFE0E0ED1518F45A
:10131E000E94D401FACFA5CF09911991FF9008959B
:10132E00FF920E94940CE1E0FE2EE0E0ED1518F421
:10133E000E94D401FACFF0FE44C0E1E4EA930E9489
:10134E000902E2E3F0E0FA93EA930E94590CE4E515
:10135E00EA930E940902E2E3F0E0FA93EA930E9414
:10136E00590CEDE0EA930E940902E2E3F0E0FA93F1
:10137E00EA930E94590CEAE0EA930E940902E2E322
:10138E00F0E0FA93EA930E94590CE4EFF1E0FA933D
:10139E00EA930E94590CE0E0ED1568F4032F0E94C9
:1013AE00D4013E2F0F3411F43B3409F003C0E894FE
:1013BE00F0F801C0F0CFDD2019F00E94D401FBCF70
:1013CE00BACF0E949B0C2496FF900895A0E09D99A1
:1013DE00A1E0A03029F0A0E09E99A1E0A03021F478
:1013EE00F401A181AE3409F032C0C69AE0E4FFE107
:1013FE00FA93EA930E94590CE4EAF6E0FA93EA9320
:10140E0070D0EDE0EA930E940902EAE0EA930E94AE
:10141E000902E4EBF0E0FA93EA930E94590CE0EF34
:10142E00F1E0FA93EA9380E001D22296EAE5F0E049
:10143E00FA93EA930E94590CEAE1EA930E94090298
:10144E00E8ECF0E0FA93EA930E94590C01C0C698BA
:10145E0008950E94940C00E010E0E0E0ED1518F401
:10146E000E94D401FACFE1E4EA930E940902E4E576
:10147E00EA930E940902EBE2EA930E940902E3E476
:10148E00EA930E940902E3E5EA930E940902E1E56C
:10149E00EA930E940902EDE0EA930E940902EAE053
:1014AE00EA930E940902E8EEF3E0FA93EA930E94AF
:1014BE00590CE0E0ED1560F40E94D4013E2FF801C6
:1014CE00DE011496EA0FFB1F30830F5F1F4FF1CF23
:1014DE00FE013496FA93EA93A0DA0E949B0C2496AE
:1014EE0008951A93A981BA81ED91A983BA831E2F0B
:1014FE00E03021F01A930E940902F4CFEAE0EA9359
:10150E000E94090218810BC0EA81EA930E94090227
:10151E00A881B981ED91FD913196FE93EE932396BC
:10152E00089526970E94920C10E0AC85BD85E0E0F0
:10153E00F0E0ED93FC93EA89FB893196EA8BFB8B05
:10154E003197E4912E2FE03011F40C94150CE12F0D
:10155E00E03069F4253211F411E008C02A93ED85CC
:10156E00FE85FA93EA93E989FA89099556C1E13025
:10157E00D9F4253249F42A93ED85FE85FA93EA9340
:10158E00E989FA89099548C112E040E000E02D3260
:10159E0011F401E042C12B3211F44BE23EC1203274
:1015AE0011F440E23AC102C0E23039F450E013E0E7
:1015BE00203311F4006831C104C0E33011F00C94F3
:1015CE00140C203310F02A3308F007C0AAE05A9FFB
:1015DE00502DE22FE0535E0F20C1E22FE33679F457
:1015EE00E889F9893497E88BF98BA481AA93ED8564
:1015FE00FE85FA93EA93E989FA8909950DC1E337D5
:10160E0091F4E889F9893497E88BF98BA889B9891F
:10161E0014960E946D0CEE83FF83FA93EA930E9458
:10162E00440C1E2F14C0E037B1F4E889F9893497C1
:10163E00E88BF98BA889B98914960E946D0CEE83FC
:10164E00FF83FA93EA930E944E0C1E2F08600260ED
:10165E000F7730E043C0E43611F0E93611F4046040
:10166E0002C0E53731F4ECE8F0E0EE83FF8315E0DD
:10167E000DC0E83511F4086004C0E83711F00C9481
:10168E00130CE6E9F0E0EE83FF8314E002FF1AC0CC
:10169E00E889F9893497E88BF98BA889B98914966A
:1016AE000E946D0CEA87FB87AB85AA232AF40E9461
:1016BE00690CEA87FB874DE2403011F01F5F01C0D5
:1016CE000B7F0CC0E889F9893497E88BF98BA889D0
:1016DE00B98914960E946D0CEA87FB8700FD17C02E
:1016EE001517A8F407FF08C002FF04C00B7F242FB4
:1016FE00115001C020E301C020E22A93ED85FE8542
:10170E00FA93EA93E989FA8909955150E9CF312F75
:10171E0001FF1DC03030D1F003FF06C0EE81FF8106
:10172E002591EE83FF8305C0AE81BF812D91AE83DF
:10173E00BF832A93ED85FE85FA93EA93E989FA89A8
:10174E000995503009F051503150E4CF56C020E386
:10175E00EE81FF810E94710CE887F987EE81FF818F
:10176E003296EE83FF83E885F985AA85BB85AE1791
:10177E00BF0750F02F5FA885B985EA85FB85EA1B68
:10178E00FB0BEA87FB87EFCF2A3328F003FF02C05B
:10179E00295F01C0295D04FD1FC0213320F4A885F7
:1017AE00B985119709F409C0531710F000FF01C055
:1017BE001EC020E207FF10C020E3006102FF0CC034
:1017CE000B7F4A93ED85FE85FA93EA93E989FA89B0
:1017DE000995503009F051502A93ED85FE85FA9304
:1017EE00EA93E989FA890995503009F05150315040
:1017FE00A885B985129708F0AACF00FF0DC050300A
:10180E0059F05150E0E2EA93ED85FE85FA93EA93A2
:10181E00E989FA890995F3CF10E08DCEAC85BD85A7
:10182E000E946D0C0E94990C64960895FF92F82EFA
:10183E0026971A930A93DE0114960E94650C8D0169
:10184E00E0E0EC83ED83EE83EF83DE0118960E94D9
:10185E00650C0E946D0CFA93EA931A930A93EBE8C7
:10186E00FAE0FA93EA93FE013896FA93EA9359DE78
:10187E00198108812896FF900895A991B991EE27B4
:10188E00FF276D91662311F03196FBCF0895AA279D
:10189E00BB27E991F9910590002011F01196FBCF2D
:1018AE00FD010895E991F991309639F083E397E0BF
:1018BE000197F1F7A8953197C9F708950024AF0D58
:1018CE00B01D0895F195E195F0400895ED91FC91CC
:1018DE00119708950590F491E02D0895E199FECFAA
:1018EE00FF93FFB7F894AEBBBFBBE09AEDB3FFBF5B
:1018FE00FF910895E19B02C0A895FCCF9FB7F89485
:10190E00AEBBBFBBE09A8DB3E81719F0EDBBE29A00
:10191E00E19A9FBF08955A934A933A932A931A9342
:10192E000A9308955D814C813B812A81198108813A
:10193E000895AC0FBD1F05900D928A95E1F708959D
:00000001FF
